:100000000C942A000C9434000C9434000C943400AA
:100010000C9434000C9434000C9434000C94340090
:100020000C9434000C9434000C9434000C94340080
:100030000C9434000C9434000C9434000C94340070
:100040000C9434000C9434000C9434000C94340060
:100050000C94340011241FBECFE5D8E0DEBFCDBF25
:100060000E9436000C945B000C9400000E944E002D
:100070000E944100C498A29A0E9457000E94490021
:10008000FBCF87B3806B87BBBE988DB180658DB980
:1000900008958FB9779BFECF8FB108958AB180699B
:1000A0008AB980B5866880BD87E689B908955F9B67
:0A00B000FECF8CB10895F894FFCF45
:00000001FF
