:100000000C942A000C9447000C9447000C94470071
:100010000C9447000C9447000C9447000C94470044
:100020000C9447000C9447000C9447000C94470034
:100030000C9447000C9447000C9447000C94470024
:100040000C9447000C9447000C9447000C94470014
:100050000C94470011241FBECFE5D8E0DEBFCDBF12
:1000600010E0A0E6B0E0EAE0F6E002C005900D92F4
:10007000AC37B107D9F720E0ACE7B0E001C01D9282
:10008000A138B207E1F70E9404010C9403030C9419
:1000900000009198909895B39F70282F207F922B05
:1000A00095BB2FEF39EF90E0215030409040E1F7C1
:1000B00000C00000929A2FEF39EF90E021503040BD
:1000C0009040E1F700C0000092982FEF39EF90E0E8
:1000D000215030409040E1F700C0000025B32F7060
:1000E00030E1839FC0011124822B85BB929A8FEF50
:1000F00099EF20E0815090402040E1F700C00000DF
:1001000092983FEF89EF90E0315080409040E1F7C6
:1001100000C000000895919A909895B39F70282F81
:10012000207F922B95BB2FEF39EF90E0215030408C
:100130009040E1F700C00000929A2FEF39EF90E075
:10014000215030409040E1F700C0000092982FEF1E
:1001500039EF90E0215030409040E1F700C00000BE
:1001600025B32F7030E1839FC0011124822B85BB02
:10017000929A8FEF99EF20E0815090402040E1F774
:1001800000C0000092983FEF89EF90E0315080402E
:100190009040E1F700C00000089584B3806F84BBF5
:1001A00081B3876081BB90988AE68A95F1F700C099
:1001B00083E30E94490082E30E94490086E00E9496
:1001C00049008CE00E94490088E20E94490081E0D9
:1001D0000E9449000895CF93DF93EC018881882322
:1001E00031F021960E948B0089918111FBCFDF9124
:1001F000CF91089581E00E9449008FE99FE0019727
:10020000F1F700C00000089587B38E6087BB0E949D
:100210008E010E94CD000E949701A29AC19AC298B5
:1002200083B7896683BFCFEF86E00E949201813356
:10023000B9F50E94FA0080E690E00E94EB00AA9ACD
:10024000CCBF6CB770E080E090E00E94D50120E068
:1002500030E040E85BE30E94390220E030E048EC07
:1002600052E40E9439020E949D01DC01CB014AE068
:100270006CE770E00E94CE0280EC0E94490089E6A3
:1002800090E00E94EB0087EC0E9449008CE790E030
:100290000E94EB008AEC0E94490085E20E948B00DC
:1002A00086E00E949201823309F0BECF0E94FA00DC
:1002B00081E790E00E94EB00AA981CBE6CB770E04A
:1002C00080E090E00E94D50120E030E040E85BE370
:1002D0000E94390220E030E048EC52E40E943902EA
:1002E0000E949D01DC01CB014AE06CE770E00E94B6
:1002F000CE0280EC0E94490089E690E00E94EB006B
:1003000087EC0E9449008CE790E00E94EB008AECA9
:100310000E94490085E20E948B0086CFBE9ABD985C
:100320006E9A08958FB9779BFECF8FB108958CEFA9
:100330008ABB8BB380698BBB08950E94A40168942B
:10034000B1110C94330208950E94180288F09F574F
:1003500098F0B92F9927B751B0F0E1F0660F771FE9
:10036000881F991F1AF0BA95C9F714C0B13091F0DF
:100370000E943202B1E008950C943202672F782F68
:100380008827B85F39F0B93FCCF3869577956795A4
:10039000B395D9F73EF490958095709561957F4F10
:1003A0008F4F9F4F0895E89409C097FB3EF49095B6
:1003B0008095709561957F4F8F4F9F4F9923A9F03E
:1003C000F92F96E9BB279395F695879577956795CD
:1003D000B795F111F8CFFAF4BB0F11F460FF1BC011
:1003E0006F5F7F4F8F4F9F4F16C0882311F096E9A4
:1003F00011C0772321F09EE8872F762F05C0662352
:1004000071F096E8862F70E060E02AF09A95660F0A
:10041000771F881FDAF7880F9695879597F90895C3
:1004200057FD9058440F551F59F05F3F71F04795A5
:10043000880F97FB991F61F09F3F79F0879508958A
:10044000121613061406551FF2CF4695F1DF08C0A9
:10045000161617061806991FF1CF869571056105C6
:1004600008940895E894BB2766277727CB0197F96E
:1004700008950E944C020C94BD020E94AF0238F015
:100480000E94B60220F0952311F00C94A6020C9461
:10049000AC0211240C9433020E94100270F3959F59
:1004A000C1F3950F50E0551F629FF001729FBB276B
:1004B000F00DB11D639FAA27F00DB11DAA1F649F07
:1004C0006627B00DA11D661F829F2227B00DA11DBA
:1004D000621F739FB00DA11D621F839FA00D611D40
:1004E000221F749F3327A00D611D231F849F600D61
:1004F000211D822F762F6A2F11249F5750409AF08A
:10050000F1F088234AF0EE0FFF1FBB1F661F771F15
:10051000881F91505040A9F79E3F510580F00C94E0
:10052000A6020C9433025F3FE4F3983ED4F3869521
:1005300077956795B795F795E7959F5FC1F7FE2B80
:10054000880F911D9695879597F9089597F99F675C
:1005500080E870E060E008959FEF80EC089500244B
:100560000A941616170618060906089500240A9418
:1005700012161306140605060895092E0394000C9E
:1005800011F4882352F0BB0F40F4BF2B11F460FF2D
:1005900004C06F5F7F4F8F4F9F4F0895BB274A3036
:1005A00031F4992322F4BDE2909581959F4F0C94EC
:1005B000DA02BB27FB015527AA27880F991FAA1F1C
:1005C000A41710F0A41B83955051B9F7A05DAA336E
:1005D00008F0A95DA193009779F7B111B193119239
:1005E000CB010C94F302DC01FC01672F719177239E
:1005F000E1F7329704C07C916D9370836291AE17DE
:0A060000BF07C8F30895F894FFCF78
:10060A004D6F746F72204F4E0044757479203D20EF
:0C061A00004D6F746F72204F46460000C8
:00000001FF
